{"abi":[{"type":"constructor","inputs":[],"stateMutability":"nonpayable"},{"type":"function","name":"ADMIN_ROLE","inputs":[],"outputs":[{"name":"","type":"bytes32","internalType":"bytes32"}],"stateMutability":"view"},{"type":"function","name":"DEFAULT_ADMIN_ROLE","inputs":[],"outputs":[{"name":"","type":"bytes32","internalType":"bytes32"}],"stateMutability":"view"},{"type":"function","name":"ORACLE_ROLE","inputs":[],"outputs":[{"name":"","type":"bytes32","internalType":"bytes32"}],"stateMutability":"view"},{"type":"function","name":"getRoleAdmin","inputs":[{"name":"role","type":"bytes32","internalType":"bytes32"}],"outputs":[{"name":"","type":"bytes32","internalType":"bytes32"}],"stateMutability":"view"},{"type":"function","name":"grantRole","inputs":[{"name":"role","type":"bytes32","internalType":"bytes32"},{"name":"account","type":"address","internalType":"address"}],"outputs":[],"stateMutability":"nonpayable"},{"type":"function","name":"hasRole","inputs":[{"name":"role","type":"bytes32","internalType":"bytes32"},{"name":"account","type":"address","internalType":"address"}],"outputs":[{"name":"","type":"bool","internalType":"bool"}],"stateMutability":"view"},{"type":"function","name":"paused","inputs":[],"outputs":[{"name":"","type":"bool","internalType":"bool"}],"stateMutability":"view"},{"type":"function","name":"proofs","inputs":[{"name":"","type":"bytes32","internalType":"bytes32"}],"outputs":[{"name":"user","type":"address","internalType":"address"},{"name":"timestamp","type":"uint256","internalType":"uint256"},{"name":"dataHash","type":"bytes32","internalType":"bytes32"},{"name":"verified","type":"bool","internalType":"bool"}],"stateMutability":"view"},{"type":"function","name":"renounceRole","inputs":[{"name":"role","type":"bytes32","internalType":"bytes32"},{"name":"callerConfirmation","type":"address","internalType":"address"}],"outputs":[],"stateMutability":"nonpayable"},{"type":"function","name":"revokeRole","inputs":[{"name":"role","type":"bytes32","internalType":"bytes32"},{"name":"account","type":"address","internalType":"address"}],"outputs":[],"stateMutability":"nonpayable"},{"type":"function","name":"supportsInterface","inputs":[{"name":"interfaceId","type":"bytes4","internalType":"bytes4"}],"outputs":[{"name":"","type":"bool","internalType":"bool"}],"stateMutability":"view"},{"type":"function","name":"verifyExpense","inputs":[{"name":"escrowId","type":"bytes32","internalType":"bytes32"},{"name":"dataHash","type":"bytes32","internalType":"bytes32"}],"outputs":[],"stateMutability":"nonpayable"},{"type":"event","name":"Paused","inputs":[{"name":"account","type":"address","indexed":false,"internalType":"address"}],"anonymous":false},{"type":"event","name":"RoleAdminChanged","inputs":[{"name":"role","type":"bytes32","indexed":true,"internalType":"bytes32"},{"name":"previousAdminRole","type":"bytes32","indexed":true,"internalType":"bytes32"},{"name":"newAdminRole","type":"bytes32","indexed":true,"internalType":"bytes32"}],"anonymous":false},{"type":"event","name":"RoleGranted","inputs":[{"name":"role","type":"bytes32","indexed":true,"internalType":"bytes32"},{"name":"account","type":"address","indexed":true,"internalType":"address"},{"name":"sender","type":"address","indexed":true,"internalType":"address"}],"anonymous":false},{"type":"event","name":"RoleRevoked","inputs":[{"name":"role","type":"bytes32","indexed":true,"internalType":"bytes32"},{"name":"account","type":"address","indexed":true,"internalType":"address"},{"name":"sender","type":"address","indexed":true,"internalType":"address"}],"anonymous":false},{"type":"event","name":"Unpaused","inputs":[{"name":"account","type":"address","indexed":false,"internalType":"address"}],"anonymous":false},{"type":"error","name":"AccessControlBadConfirmation","inputs":[]},{"type":"error","name":"AccessControlUnauthorizedAccount","inputs":[{"name":"account","type":"address","internalType":"address"},{"name":"neededRole","type":"bytes32","internalType":"bytes32"}]},{"type":"error","name":"EnforcedPause","inputs":[]},{"type":"error","name":"ExpectedPause","inputs":[]},{"type":"error","name":"ReentrancyGuardReentrantCall","inputs":[]}],"bytecode":{"object":"0x608060405234801561000f575f80fd5b50600161002e6100236100ae60201b60201c565b6100d760201b60201c565b5f01819055506100465f801b336100e060201b60201c565b506100777fa49807205ce4d355092ef5a8a18f56e8913cf4a201fbe287825b095693c21775336100e060201b60201c565b506100a87f68e79a7bf1e0bc45d0a330c573bc367f9cf464fd326078812f301165fbda4ef1336100e060201b60201c565b50610240565b5f7f9b779b17422d0df92223018b32b4d1fa46e071723d6817e2486d003becc55f005f1b905090565b5f819050919050565b5f6100f183836101d560201b60201c565b6101cb576001805f8581526020019081526020015f205f015f8473ffffffffffffffffffffffffffffffffffffffff1673ffffffffffffffffffffffffffffffffffffffff1681526020019081526020015f205f6101000a81548160ff02191690831515021790555061016861023960201b60201c565b73ffffffffffffffffffffffffffffffffffffffff168273ffffffffffffffffffffffffffffffffffffffff16847f2f8788117e7eff1d82e926ec794901d17c78024a50270940304540a733656f0d60405160405180910390a4600190506101cf565b5f90505b92915050565b5f60015f8481526020019081526020015f205f015f8373ffffffffffffffffffffffffffffffffffffffff1673ffffffffffffffffffffffffffffffffffffffff1681526020019081526020015f205f9054906101000a900460ff16905092915050565b5f33905090565b610b498061024d5f395ff3fe608060405234801561000f575f80fd5b50600436106100b2575f3560e01c8063444d95b01161006f578063444d95b0146101885780635c975abb146101bb57806375b238fc146101d957806391d14854146101f7578063a217fddf14610227578063d547741f14610245576100b2565b806301ffc9a7146100b657806307e2cea5146100e6578063216f69e114610104578063248a9ca3146101205780632f2ff15d1461015057806336568abe1461016c575b5f80fd5b6100d060048036038101906100cb91906108c8565b610261565b6040516100dd919061090d565b60405180910390f35b6100ee6102da565b6040516100fb919061093e565b60405180910390f35b61011e60048036038101906101199190610981565b6102fe565b005b61013a600480360381019061013591906109bf565b6103f2565b604051610147919061093e565b60405180910390f35b61016a60048036038101906101659190610a44565b61040f565b005b61018660048036038101906101819190610a44565b610431565b005b6101a2600480360381019061019d91906109bf565b6104ac565b6040516101b29493929190610aa9565b60405180910390f35b6101c3610503565b6040516101d0919061090d565b60405180910390f35b6101e1610517565b6040516101ee919061093e565b60405180910390f35b610211600480360381019061020c9190610a44565b61053b565b60405161021e919061090d565b60405180910390f35b61022f61059f565b60405161023c919061093e565b60405180910390f35b61025f600480360381019061025a9190610a44565b6105a5565b005b5f7f7965db0b000000000000000000000000000000000000000000000000000000007bffffffffffffffffffffffffffffffffffffffffffffffffffffffff1916827bffffffffffffffffffffffffffffffffffffffffffffffffffffffff191614806102d357506102d2826105c7565b5b9050919050565b7f68e79a7bf1e0bc45d0a330c573bc367f9cf464fd326078812f301165fbda4ef181565b7f68e79a7bf1e0bc45d0a330c573bc367f9cf464fd326078812f301165fbda4ef161032881610630565b60405180608001604052803373ffffffffffffffffffffffffffffffffffffffff1681526020014281526020018381526020016001151581525060025f8581526020019081526020015f205f820151815f015f6101000a81548173ffffffffffffffffffffffffffffffffffffffff021916908373ffffffffffffffffffffffffffffffffffffffff16021790555060208201518160010155604082015181600201556060820151816003015f6101000a81548160ff021916908315150217905550905050505050565b5f60015f8381526020019081526020015f20600101549050919050565b610418826103f2565b61042181610630565b61042b8383610644565b50505050565b61043961072d565b73ffffffffffffffffffffffffffffffffffffffff168173ffffffffffffffffffffffffffffffffffffffff161461049d576040517f6697b23200000000000000000000000000000000000000000000000000000000815260040160405180910390fd5b6104a78282610734565b505050565b6002602052805f5260405f205f91509050805f015f9054906101000a900473ffffffffffffffffffffffffffffffffffffffff1690806001015490806002015490806003015f9054906101000a900460ff16905084565b5f805f9054906101000a900460ff16905090565b7fa49807205ce4d355092ef5a8a18f56e8913cf4a201fbe287825b095693c2177581565b5f60015f8481526020019081526020015f205f015f8373ffffffffffffffffffffffffffffffffffffffff1673ffffffffffffffffffffffffffffffffffffffff1681526020019081526020015f205f9054906101000a900460ff16905092915050565b5f801b81565b6105ae826103f2565b6105b781610630565b6105c18383610734565b50505050565b5f7f01ffc9a7000000000000000000000000000000000000000000000000000000007bffffffffffffffffffffffffffffffffffffffffffffffffffffffff1916827bffffffffffffffffffffffffffffffffffffffffffffffffffffffff1916149050919050565b6106418161063c61072d565b61081e565b50565b5f61064f838361053b565b610723576001805f8581526020019081526020015f205f015f8473ffffffffffffffffffffffffffffffffffffffff1673ffffffffffffffffffffffffffffffffffffffff1681526020019081526020015f205f6101000a81548160ff0219169083151502179055506106c061072d565b73ffffffffffffffffffffffffffffffffffffffff168273ffffffffffffffffffffffffffffffffffffffff16847f2f8788117e7eff1d82e926ec794901d17c78024a50270940304540a733656f0d60405160405180910390a460019050610727565b5f90505b92915050565b5f33905090565b5f61073f838361053b565b15610814575f60015f8581526020019081526020015f205f015f8473ffffffffffffffffffffffffffffffffffffffff1673ffffffffffffffffffffffffffffffffffffffff1681526020019081526020015f205f6101000a81548160ff0219169083151502179055506107b161072d565b73ffffffffffffffffffffffffffffffffffffffff168273ffffffffffffffffffffffffffffffffffffffff16847ff6391f5c32d9c69d2a47ea670b442974b53935d1edc7fd64eb21e047a839171b60405160405180910390a460019050610818565b5f90505b92915050565b610828828261053b565b61086b5780826040517fe2517d3f000000000000000000000000000000000000000000000000000000008152600401610862929190610aec565b60405180910390fd5b5050565b5f80fd5b5f7fffffffff0000000000000000000000000000000000000000000000000000000082169050919050565b6108a781610873565b81146108b1575f80fd5b50565b5f813590506108c28161089e565b92915050565b5f602082840312156108dd576108dc61086f565b5b5f6108ea848285016108b4565b91505092915050565b5f8115159050919050565b610907816108f3565b82525050565b5f6020820190506109205f8301846108fe565b92915050565b5f819050919050565b61093881610926565b82525050565b5f6020820190506109515f83018461092f565b92915050565b61096081610926565b811461096a575f80fd5b50565b5f8135905061097b81610957565b92915050565b5f80604083850312156109975761099661086f565b5b5f6109a48582860161096d565b92505060206109b58582860161096d565b9150509250929050565b5f602082840312156109d4576109d361086f565b5b5f6109e18482850161096d565b91505092915050565b5f73ffffffffffffffffffffffffffffffffffffffff82169050919050565b5f610a13826109ea565b9050919050565b610a2381610a09565b8114610a2d575f80fd5b50565b5f81359050610a3e81610a1a565b92915050565b5f8060408385031215610a5a57610a5961086f565b5b5f610a678582860161096d565b9250506020610a7885828601610a30565b9150509250929050565b610a8b81610a09565b82525050565b5f819050919050565b610aa381610a91565b82525050565b5f608082019050610abc5f830187610a82565b610ac96020830186610a9a565b610ad6604083018561092f565b610ae360608301846108fe565b95945050505050565b5f604082019050610aff5f830185610a82565b610b0c602083018461092f565b939250505056fea2646970667358221220414a46df7be67180e2276e7e53f1d014a1ae8bc837540d3ad17368af8866b26a64736f6c63430008180033","linkReferences":{}},"methodIdentifiers":{"ADMIN_ROLE()":"75b238fc","DEFAULT_ADMIN_ROLE()":"a217fddf","ORACLE_ROLE()":"07e2cea5","getRoleAdmin(bytes32)":"248a9ca3","grantRole(bytes32,address)":"2f2ff15d","hasRole(bytes32,address)":"91d14854","paused()":"5c975abb","proofs(bytes32)":"444d95b0","renounceRole(bytes32,address)":"36568abe","revokeRole(bytes32,address)":"d547741f","supportsInterface(bytes4)":"01ffc9a7","verifyExpense(bytes32,bytes32)":"216f69e1"},"id":8}