{"abi":[{"type":"constructor","inputs":[{"name":"_treasury","type":"address","internalType":"address"}],"stateMutability":"nonpayable"},{"type":"function","name":"ADMIN_ROLE","inputs":[],"outputs":[{"name":"","type":"bytes32","internalType":"bytes32"}],"stateMutability":"view"},{"type":"function","name":"DEFAULT_ADMIN_ROLE","inputs":[],"outputs":[{"name":"","type":"bytes32","internalType":"bytes32"}],"stateMutability":"view"},{"type":"function","name":"DEFAULT_TIMEOUT","inputs":[],"outputs":[{"name":"","type":"uint256","internalType":"uint256"}],"stateMutability":"view"},{"type":"function","name":"MAX_TIMEOUT_EXTENSION","inputs":[],"outputs":[{"name":"","type":"uint256","internalType":"uint256"}],"stateMutability":"view"},{"type":"function","name":"ORACLE_ROLE","inputs":[],"outputs":[{"name":"","type":"bytes32","internalType":"bytes32"}],"stateMutability":"view"},{"type":"function","name":"createEscrow","inputs":[{"name":"token","type":"address","internalType":"address"},{"name":"amount","type":"uint256","internalType":"uint256"},{"name":"paymentId","type":"bytes32","internalType":"bytes32"},{"name":"category","type":"string","internalType":"string"}],"outputs":[{"name":"escrowId","type":"bytes32","internalType":"bytes32"}],"stateMutability":"nonpayable"},{"type":"function","name":"emergencyWithdraw","inputs":[{"name":"token","type":"address","internalType":"address"},{"name":"to","type":"address","internalType":"address"},{"name":"amount","type":"uint256","internalType":"uint256"}],"outputs":[],"stateMutability":"nonpayable"},{"type":"function","name":"escrows","inputs":[{"name":"","type":"bytes32","internalType":"bytes32"}],"outputs":[{"name":"user","type":"address","internalType":"address"},{"name":"token","type":"address","internalType":"address"},{"name":"amount","type":"uint256","internalType":"uint256"},{"name":"createdAt","type":"uint256","internalType":"uint256"},{"name":"timeoutAt","type":"uint256","internalType":"uint256"},{"name":"paymentId","type":"bytes32","internalType":"bytes32"},{"name":"status","type":"uint8","internalType":"enum PaymentEscrow.EscrowStatus"},{"name":"category","type":"string","internalType":"string"}],"stateMutability":"view"},{"type":"function","name":"expireEscrow","inputs":[{"name":"escrowId","type":"bytes32","internalType":"bytes32"}],"outputs":[],"stateMutability":"nonpayable"},{"type":"function","name":"extendTimeout","inputs":[{"name":"escrowId","type":"bytes32","internalType":"bytes32"},{"name":"additionalTime","type":"uint256","internalType":"uint256"}],"outputs":[],"stateMutability":"nonpayable"},{"type":"function","name":"getEscrow","inputs":[{"name":"escrowId","type":"bytes32","internalType":"bytes32"}],"outputs":[{"name":"","type":"tuple","internalType":"struct PaymentEscrow.Escrow","components":[{"name":"user","type":"address","internalType":"address"},{"name":"token","type":"address","internalType":"address"},{"name":"amount","type":"uint256","internalType":"uint256"},{"name":"createdAt","type":"uint256","internalType":"uint256"},{"name":"timeoutAt","type":"uint256","internalType":"uint256"},{"name":"paymentId","type":"bytes32","internalType":"bytes32"},{"name":"status","type":"uint8","internalType":"enum PaymentEscrow.EscrowStatus"},{"name":"category","type":"string","internalType":"string"}]}],"stateMutability":"view"},{"type":"function","name":"getExpiredEscrowsCount","inputs":[{"name":"escrowIds","type":"bytes32[]","internalType":"bytes32[]"}],"outputs":[{"name":"count","type":"uint256","internalType":"uint256"}],"stateMutability":"view"},{"type":"function","name":"getRoleAdmin","inputs":[{"name":"role","type":"bytes32","internalType":"bytes32"}],"outputs":[{"name":"","type":"bytes32","internalType":"bytes32"}],"stateMutability":"view"},{"type":"function","name":"getUserEscrows","inputs":[{"name":"user","type":"address","internalType":"address"}],"outputs":[{"name":"","type":"bytes32[]","internalType":"bytes32[]"}],"stateMutability":"view"},{"type":"function","name":"grantRole","inputs":[{"name":"role","type":"bytes32","internalType":"bytes32"},{"name":"account","type":"address","internalType":"address"}],"outputs":[],"stateMutability":"nonpayable"},{"type":"function","name":"hasRole","inputs":[{"name":"role","type":"bytes32","internalType":"bytes32"},{"name":"account","type":"address","internalType":"address"}],"outputs":[{"name":"","type":"bool","internalType":"bool"}],"stateMutability":"view"},{"type":"function","name":"pause","inputs":[],"outputs":[],"stateMutability":"nonpayable"},{"type":"function","name":"paused","inputs":[],"outputs":[{"name":"","type":"bool","internalType":"bool"}],"stateMutability":"view"},{"type":"function","name":"platformFeeBps","inputs":[],"outputs":[{"name":"","type":"uint256","internalType":"uint256"}],"stateMutability":"view"},{"type":"function","name":"refundEscrow","inputs":[{"name":"escrowId","type":"bytes32","internalType":"bytes32"},{"name":"reason","type":"string","internalType":"string"}],"outputs":[],"stateMutability":"nonpayable"},{"type":"function","name":"releaseEscrow","inputs":[{"name":"escrowId","type":"bytes32","internalType":"bytes32"},{"name":"expenseId","type":"bytes32","internalType":"bytes32"}],"outputs":[],"stateMutability":"nonpayable"},{"type":"function","name":"renounceRole","inputs":[{"name":"role","type":"bytes32","internalType":"bytes32"},{"name":"callerConfirmation","type":"address","internalType":"address"}],"outputs":[],"stateMutability":"nonpayable"},{"type":"function","name":"revokeRole","inputs":[{"name":"role","type":"bytes32","internalType":"bytes32"},{"name":"account","type":"address","internalType":"address"}],"outputs":[],"stateMutability":"nonpayable"},{"type":"function","name":"setPlatformFee","inputs":[{"name":"_feeBps","type":"uint256","internalType":"uint256"}],"outputs":[],"stateMutability":"nonpayable"},{"type":"function","name":"setSupportedToken","inputs":[{"name":"token","type":"address","internalType":"address"},{"name":"supported","type":"bool","internalType":"bool"}],"outputs":[],"stateMutability":"nonpayable"},{"type":"function","name":"setTreasury","inputs":[{"name":"_treasury","type":"address","internalType":"address"}],"outputs":[],"stateMutability":"nonpayable"},{"type":"function","name":"supportedTokens","inputs":[{"name":"","type":"address","internalType":"address"}],"outputs":[{"name":"","type":"bool","internalType":"bool"}],"stateMutability":"view"},{"type":"function","name":"supportsInterface","inputs":[{"name":"interfaceId","type":"bytes4","internalType":"bytes4"}],"outputs":[{"name":"","type":"bool","internalType":"bool"}],"stateMutability":"view"},{"type":"function","name":"treasury","inputs":[],"outputs":[{"name":"","type":"address","internalType":"address"}],"stateMutability":"view"},{"type":"function","name":"unpause","inputs":[],"outputs":[],"stateMutability":"nonpayable"},{"type":"function","name":"userEscrows","inputs":[{"name":"","type":"address","internalType":"address"},{"name":"","type":"uint256","internalType":"uint256"}],"outputs":[{"name":"","type":"bytes32","internalType":"bytes32"}],"stateMutability":"view"},{"type":"event","name":"EscrowCreated","inputs":[{"name":"escrowId","type":"bytes32","indexed":true,"internalType":"bytes32"},{"name":"user","type":"address","indexed":true,"internalType":"address"},{"name":"token","type":"address","indexed":false,"internalType":"address"},{"name":"amount","type":"uint256","indexed":false,"internalType":"uint256"},{"name":"paymentId","type":"bytes32","indexed":false,"internalType":"bytes32"},{"name":"timeoutAt","type":"uint256","indexed":false,"internalType":"uint256"}],"anonymous":false},{"type":"event","name":"EscrowExpired","inputs":[{"name":"escrowId","type":"bytes32","indexed":true,"internalType":"bytes32"},{"name":"user","type":"address","indexed":true,"internalType":"address"},{"name":"amount","type":"uint256","indexed":false,"internalType":"uint256"}],"anonymous":false},{"type":"event","name":"EscrowRefunded","inputs":[{"name":"escrowId","type":"bytes32","indexed":true,"internalType":"bytes32"},{"name":"user","type":"address","indexed":true,"internalType":"address"},{"name":"amount","type":"uint256","indexed":false,"internalType":"uint256"},{"name":"reason","type":"string","indexed":false,"internalType":"string"}],"anonymous":false},{"type":"event","name":"EscrowReleased","inputs":[{"name":"escrowId","type":"bytes32","indexed":true,"internalType":"bytes32"},{"name":"user","type":"address","indexed":true,"internalType":"address"},{"name":"expenseId","type":"bytes32","indexed":false,"internalType":"bytes32"},{"name":"amount","type":"uint256","indexed":false,"internalType":"uint256"}],"anonymous":false},{"type":"event","name":"Paused","inputs":[{"name":"account","type":"address","indexed":false,"internalType":"address"}],"anonymous":false},{"type":"event","name":"PlatformFeeUpdated","inputs":[{"name":"oldFee","type":"uint256","indexed":false,"internalType":"uint256"},{"name":"newFee","type":"uint256","indexed":false,"internalType":"uint256"}],"anonymous":false},{"type":"event","name":"RoleAdminChanged","inputs":[{"name":"role","type":"bytes32","indexed":true,"internalType":"bytes32"},{"name":"previousAdminRole","type":"bytes32","indexed":true,"internalType":"bytes32"},{"name":"newAdminRole","type":"bytes32","indexed":true,"internalType":"bytes32"}],"anonymous":false},{"type":"event","name":"RoleGranted","inputs":[{"name":"role","type":"bytes32","indexed":true,"internalType":"bytes32"},{"name":"account","type":"address","indexed":true,"internalType":"address"},{"name":"sender","type":"address","indexed":true,"internalType":"address"}],"anonymous":false},{"type":"event","name":"RoleRevoked","inputs":[{"name":"role","type":"bytes32","indexed":true,"internalType":"bytes32"},{"name":"account","type":"address","indexed":true,"internalType":"address"},{"name":"sender","type":"address","indexed":true,"internalType":"address"}],"anonymous":false},{"type":"event","name":"TimeoutExtended","inputs":[{"name":"escrowId","type":"bytes32","indexed":true,"internalType":"bytes32"},{"name":"oldTimeout","type":"uint256","indexed":false,"internalType":"uint256"},{"name":"newTimeout","type":"uint256","indexed":false,"internalType":"uint256"}],"anonymous":false},{"type":"event","name":"TokenSupportUpdated","inputs":[{"name":"token","type":"address","indexed":true,"internalType":"address"},{"name":"supported","type":"bool","indexed":false,"internalType":"bool"}],"anonymous":false},{"type":"event","name":"TreasuryUpdated","inputs":[{"name":"oldTreasury","type":"address","indexed":true,"internalType":"address"},{"name":"newTreasury","type":"address","indexed":true,"internalType":"address"}],"anonymous":false},{"type":"event","name":"Unpaused","inputs":[{"name":"account","type":"address","indexed":false,"internalType":"address"}],"anonymous":false},{"type":"error","name":"AccessControlBadConfirmation","inputs":[]},{"type":"error","name":"AccessControlUnauthorizedAccount","inputs":[{"name":"account","type":"address","internalType":"address"},{"name":"neededRole","type":"bytes32","internalType":"bytes32"}]},{"type":"error","name":"EnforcedPause","inputs":[]},{"type":"error","name":"ExpectedPause","inputs":[]},{"type":"error","name":"ReentrancyGuardReentrantCall","inputs":[]},{"type":"error","name":"SafeERC20FailedOperation","inputs":[{"name":"token","type":"address","internalType":"address"}]}],"bytecode":{"object":"0x6080604052606460065534801562000015575f80fd5b50604051620042d5380380620042d583398181016040528101906200003b919062000393565b60016200005d620000516200019660201b60201c565b620001bf60201b60201c565b5f01819055505f73ffffffffffffffffffffffffffffffffffffffff168173ffffffffffffffffffffffffffffffffffffffff1603620000d4576040517f08c379a0000000000000000000000000000000000000000000000000000000008152600401620000cb9062000421565b60405180910390fd5b8060055f6101000a81548173ffffffffffffffffffffffffffffffffffffffff021916908373ffffffffffffffffffffffffffffffffffffffff160217905550620001285f801b33620001c860201b60201c565b506200015b7fa49807205ce4d355092ef5a8a18f56e8913cf4a201fbe287825b095693c2177533620001c860201b60201c565b506200018e7f68e79a7bf1e0bc45d0a330c573bc367f9cf464fd326078812f301165fbda4ef133620001c860201b60201c565b505062000441565b5f7f9b779b17422d0df92223018b32b4d1fa46e071723d6817e2486d003becc55f005f1b905090565b5f819050919050565b5f620001db8383620002c360201b60201c565b620002b9576001805f8581526020019081526020015f205f015f8473ffffffffffffffffffffffffffffffffffffffff1673ffffffffffffffffffffffffffffffffffffffff1681526020019081526020015f205f6101000a81548160ff021916908315150217905550620002556200032760201b60201c565b73ffffffffffffffffffffffffffffffffffffffff168273ffffffffffffffffffffffffffffffffffffffff16847f2f8788117e7eff1d82e926ec794901d17c78024a50270940304540a733656f0d60405160405180910390a460019050620002bd565b5f90505b92915050565b5f60015f8481526020019081526020015f205f015f8373ffffffffffffffffffffffffffffffffffffffff1673ffffffffffffffffffffffffffffffffffffffff1681526020019081526020015f205f9054906101000a900460ff16905092915050565b5f33905090565b5f80fd5b5f73ffffffffffffffffffffffffffffffffffffffff82169050919050565b5f6200035d8262000332565b9050919050565b6200036f8162000351565b81146200037a575f80fd5b50565b5f815190506200038d8162000364565b92915050565b5f60208284031215620003ab57620003aa6200032e565b5b5f620003ba848285016200037d565b91505092915050565b5f82825260208201905092915050565b7f496e76616c6964207472656173757279000000000000000000000000000000005f82015250565b5f62000409601083620003c3565b91506200041682620003d3565b602082019050919050565b5f6020820190508181035f8301526200043a81620003fb565b9050919050565b613e86806200044f5f395ff3fe608060405234801561000f575f80fd5b50600436106101e3575f3560e01c80635e5428c41161010d5780639add92e4116100a0578063e63ea4081161006f578063e63ea40814610582578063e79864661461059e578063f023b811146105ba578063f0f44260146105ea576101e3565b80639add92e4146104fa578063a217fddf14610518578063d547741f14610536578063dfe389cb14610552576101e3565b80637f944dd0116100dc5780637f944dd01461047457806380702d9c146104a45780638456cb59146104c057806391d14854146104ca576101e3565b80635e5428c4146103ec57806361d027b31461040857806368c4ac261461042657806375b238fc14610456576101e3565b80632f2ff15d116101855780634242835c116101545780634242835c146103525780635b7d6b7e146103825780635c975abb1461039e5780635ccea85e146103bc576101e3565b80632f2ff15d146102f257806336568abe1461030e5780633f4ba83a1461032a578063413f729914610334576101e3565b806312e8e2c3116101c157806312e8e2c31461025157806322dcd13e1461026d578063248a9ca31461028b5780632d83549c146102bb576101e3565b806301ffc9a7146101e757806307e2cea5146102175780630f01b93714610235575b5f80fd5b61020160048036038101906101fc919061284f565b610606565b60405161020e9190612894565b60405180910390f35b61021f61067f565b60405161022c91906128c5565b60405180910390f35b61024f600480360381019061024a9190612908565b6106a3565b005b61026b60048036038101906102669190612966565b61092c565b005b6102756109e6565b60405161028291906129a0565b60405180910390f35b6102a560048036038101906102a09190612908565b6109ec565b6040516102b291906128c5565b60405180910390f35b6102d560048036038101906102d09190612908565b610a09565b6040516102e9989796959493929190612af5565b60405180910390f35b61030c60048036038101906103079190612ba2565b610b1d565b005b61032860048036038101906103239190612ba2565b610b3f565b005b610332610bba565b005b61033c610bef565b60405161034991906129a0565b60405180910390f35b61036c60048036038101906103679190612d0c565b610bf5565b60405161037991906128c5565b60405180910390f35b61039c60048036038101906103979190612d8c565b611070565b005b6103a6611363565b6040516103b39190612894565b60405180910390f35b6103d660048036038101906103d19190612dca565b611377565b6040516103e39190612eac565b60405180910390f35b61040660048036038101906104019190612ecc565b61140a565b005b61041061167b565b60405161041d9190612f26565b60405180910390f35b610440600480360381019061043b9190612dca565b6116a0565b60405161044d9190612894565b60405180910390f35b61045e6116bd565b60405161046b91906128c5565b60405180910390f35b61048e60048036038101906104899190612f3f565b6116e1565b60405161049b91906128c5565b60405180910390f35b6104be60048036038101906104b99190612f7d565b61170c565b005b6104c86118fa565b005b6104e460048036038101906104df9190612ba2565b61192f565b6040516104f19190612894565b60405180910390f35b610502611993565b60405161050f91906129a0565b60405180910390f35b610520611999565b60405161052d91906128c5565b60405180910390f35b610550600480360381019061054b9190612ba2565b61199f565b005b61056c6004803603810190610567919061307f565b6119c1565b60405161057991906129a0565b60405180910390f35b61059c600480360381019061059791906130c6565b611c07565b005b6105b860048036038101906105b39190613140565b611cd8565b005b6105d460048036038101906105cf9190612908565b611e17565b6040516105e191906132a0565b60405180910390f35b61060460048036038101906105ff9190612dca565b611fde565b005b5f7f7965db0b000000000000000000000000000000000000000000000000000000007bffffffffffffffffffffffffffffffffffffffffffffffffffffffff1916827bffffffffffffffffffffffffffffffffffffffffffffffffffffffff1916148061067857506106778261213a565b5b9050919050565b7f68e79a7bf1e0bc45d0a330c573bc367f9cf464fd326078812f301165fbda4ef181565b6106ab6121a3565b5f60025f8381526020019081526020015f2090505f73ffffffffffffffffffffffffffffffffffffffff16815f015f9054906101000a900473ffffffffffffffffffffffffffffffffffffffff1673ffffffffffffffffffffffffffffffffffffffff160361074f576040517f08c379a00000000000000000000000000000000000000000000000000000000081526004016107469061330a565b60405180910390fd5b5f6003811115610762576107616129f8565b5b816006015f9054906101000a900460ff166003811115610785576107846129f8565b5b146107c5576040517f08c379a00000000000000000000000000000000000000000000000000000000081526004016107bc90613372565b60405180910390fd5b8060040154421161080b576040517f08c379a0000000000000000000000000000000000000000000000000000000008152600401610802906133da565b60405180910390fd5b6003816006015f6101000a81548160ff02191690836003811115610832576108316129f8565b5b02179055506108ab815f015f9054906101000a900473ffffffffffffffffffffffffffffffffffffffff168260020154836001015f9054906101000a900473ffffffffffffffffffffffffffffffffffffffff1673ffffffffffffffffffffffffffffffffffffffff166121c59092919063ffffffff16565b805f015f9054906101000a900473ffffffffffffffffffffffffffffffffffffffff1673ffffffffffffffffffffffffffffffffffffffff16827ffee9d3bc684708fe4e19fee12500eff9ec882d63ae157dff430ddd1a375450bb836002015460405161091891906129a0565b60405180910390a350610929612218565b50565b7fa49807205ce4d355092ef5a8a18f56e8913cf4a201fbe287825b095693c2177561095681612232565b6101f482111561099b576040517f08c379a000000000000000000000000000000000000000000000000000000000815260040161099290613442565b60405180910390fd5b5f6006549050826006819055507fd347e206f25a89b917fc9482f1a2d294d749baa4dc9bde7fb495ee11fe49164381846040516109d9929190613460565b60405180910390a1505050565b60065481565b5f60015f8381526020019081526020015f20600101549050919050565b6002602052805f5260405f205f91509050805f015f9054906101000a900473ffffffffffffffffffffffffffffffffffffffff1690806001015f9054906101000a900473ffffffffffffffffffffffffffffffffffffffff1690806002015490806003015490806004015490806005015490806006015f9054906101000a900460ff1690806007018054610a9c906134b4565b80601f0160208091040260200160405190810160405280929190818152602001828054610ac8906134b4565b8015610b135780601f10610aea57610100808354040283529160200191610b13565b820191905f5260205f20905b815481529060010190602001808311610af657829003601f168201915b5050505050905088565b610b26826109ec565b610b2f81612232565b610b398383612246565b50505050565b610b4761232f565b73ffffffffffffffffffffffffffffffffffffffff168173ffffffffffffffffffffffffffffffffffffffff1614610bab576040517f6697b23200000000000000000000000000000000000000000000000000000000815260040160405180910390fd5b610bb58282612336565b505050565b7fa49807205ce4d355092ef5a8a18f56e8913cf4a201fbe287825b095693c21775610be481612232565b610bec612420565b50565b61546081565b5f610bfe6121a3565b610c06612480565b60045f8673ffffffffffffffffffffffffffffffffffffffff1673ffffffffffffffffffffffffffffffffffffffff1681526020019081526020015f205f9054906101000a900460ff16610c8f576040517f08c379a0000000000000000000000000000000000000000000000000000000008152600401610c869061352e565b60405180910390fd5b5f8411610cd1576040517f08c379a0000000000000000000000000000000000000000000000000000000008152600401610cc890613596565b60405180910390fd5b5f801b8303610d15576040517f08c379a0000000000000000000000000000000000000000000000000000000008152600401610d0c906135fe565b60405180910390fd5b338585854243604051602001610d30969594939291906136a1565b6040516020818303038152906040528051906020012090505f73ffffffffffffffffffffffffffffffffffffffff1660025f8381526020019081526020015f205f015f9054906101000a900473ffffffffffffffffffffffffffffffffffffffff1673ffffffffffffffffffffffffffffffffffffffff1614610de8576040517f08c379a0000000000000000000000000000000000000000000000000000000008152600401610ddf9061375a565b60405180910390fd5b610e153330868873ffffffffffffffffffffffffffffffffffffffff166124c1909392919063ffffffff16565b5f612a3042610e2491906137a5565b90506040518061010001604052803373ffffffffffffffffffffffffffffffffffffffff1681526020018773ffffffffffffffffffffffffffffffffffffffff1681526020018681526020014281526020018281526020018581526020015f6003811115610e9557610e946129f8565b5b81526020018481525060025f8481526020019081526020015f205f820151815f015f6101000a81548173ffffffffffffffffffffffffffffffffffffffff021916908373ffffffffffffffffffffffffffffffffffffffff1602179055506020820151816001015f6101000a81548173ffffffffffffffffffffffffffffffffffffffff021916908373ffffffffffffffffffffffffffffffffffffffff16021790555060408201518160020155606082015181600301556080820151816004015560a0820151816005015560c0820151816006015f6101000a81548160ff02191690836003811115610f8b57610f8a6129f8565b5b021790555060e0820151816007019081610fa59190613975565b5090505060035f3373ffffffffffffffffffffffffffffffffffffffff1673ffffffffffffffffffffffffffffffffffffffff1681526020019081526020015f2082908060018154018082558091505060019003905f5260205f20015f90919091909150553373ffffffffffffffffffffffffffffffffffffffff16827f988f74a523f4297737548e1bc71ca431bee5f22fc29c4056ef51c11bfa0ba326888888866040516110579493929190613a44565b60405180910390a350611068612218565b949350505050565b6110786121a3565b7f68e79a7bf1e0bc45d0a330c573bc367f9cf464fd326078812f301165fbda4ef16110a281612232565b5f60025f8581526020019081526020015f2090505f73ffffffffffffffffffffffffffffffffffffffff16815f015f9054906101000a900473ffffffffffffffffffffffffffffffffffffffff1673ffffffffffffffffffffffffffffffffffffffff1603611146576040517f08c379a000000000000000000000000000000000000000000000000000000000815260040161113d9061330a565b60405180910390fd5b5f6003811115611159576111586129f8565b5b816006015f9054906101000a900460ff16600381111561117c5761117b6129f8565b5b146111bc576040517f08c379a00000000000000000000000000000000000000000000000000000000081526004016111b390613372565b60405180910390fd5b8060040154421115611203576040517f08c379a00000000000000000000000000000000000000000000000000000000081526004016111fa90613ad1565b60405180910390fd5b5f61271060065483600201546112199190613aef565b6112239190613b5d565b90505f8183600201546112369190613b8d565b90506001836006015f6101000a81548160ff0219169083600381111561125f5761125e6129f8565b5b02179055505f8211156112dc576112db60055f9054906101000a900473ffffffffffffffffffffffffffffffffffffffff1683856001015f9054906101000a900473ffffffffffffffffffffffffffffffffffffffff1673ffffffffffffffffffffffffffffffffffffffff166121c59092919063ffffffff16565b5b825f015f9054906101000a900473ffffffffffffffffffffffffffffffffffffffff1673ffffffffffffffffffffffffffffffffffffffff16867f21f13c79cc3b845bc565f4c89c578bdae7e7bdade51e8d9a5f927ca3c8055e3687866002015460405161134b929190613bc0565b60405180910390a35050505061135f612218565b5050565b5f805f9054906101000a900460ff16905090565b606060035f8373ffffffffffffffffffffffffffffffffffffffff1673ffffffffffffffffffffffffffffffffffffffff1681526020019081526020015f208054806020026020016040519081016040528092919081815260200182805480156113fe57602002820191905f5260205f20905b8154815260200190600101908083116113ea575b50505050509050919050565b6114126121a3565b7f68e79a7bf1e0bc45d0a330c573bc367f9cf464fd326078812f301165fbda4ef161143c81612232565b5f60025f8581526020019081526020015f2090505f73ffffffffffffffffffffffffffffffffffffffff16815f015f9054906101000a900473ffffffffffffffffffffffffffffffffffffffff1673ffffffffffffffffffffffffffffffffffffffff16036114e0576040517f08c379a00000000000000000000000000000000000000000000000000000000081526004016114d79061330a565b60405180910390fd5b5f60038111156114f3576114f26129f8565b5b816006015f9054906101000a900460ff166003811115611516576115156129f8565b5b14611556576040517f08c379a000000000000000000000000000000000000000000000000000000000815260040161154d90613372565b60405180910390fd5b6002816006015f6101000a81548160ff0219169083600381111561157d5761157c6129f8565b5b02179055506115f6815f015f9054906101000a900473ffffffffffffffffffffffffffffffffffffffff168260020154836001015f9054906101000a900473ffffffffffffffffffffffffffffffffffffffff1673ffffffffffffffffffffffffffffffffffffffff166121c59092919063ffffffff16565b805f015f9054906101000a900473ffffffffffffffffffffffffffffffffffffffff1673ffffffffffffffffffffffffffffffffffffffff16847f8c90de59f24c939b7e8e5f2914387cdc80468113ce3e748bc59d8376a9ee5bd1836002015486604051611665929190613be7565b60405180910390a35050611677612218565b5050565b60055f9054906101000a900473ffffffffffffffffffffffffffffffffffffffff1681565b6004602052805f5260405f205f915054906101000a900460ff1681565b7fa49807205ce4d355092ef5a8a18f56e8913cf4a201fbe287825b095693c2177581565b6003602052815f5260405f2081815481106116fa575f80fd5b905f5260205f20015f91509150505481565b7f68e79a7bf1e0bc45d0a330c573bc367f9cf464fd326078812f301165fbda4ef161173681612232565b5f60025f8581526020019081526020015f2090505f73ffffffffffffffffffffffffffffffffffffffff16815f015f9054906101000a900473ffffffffffffffffffffffffffffffffffffffff1673ffffffffffffffffffffffffffffffffffffffff16036117da576040517f08c379a00000000000000000000000000000000000000000000000000000000081526004016117d19061330a565b60405180910390fd5b5f60038111156117ed576117ec6129f8565b5b816006015f9054906101000a900460ff1660038111156118105761180f6129f8565b5b14611850576040517f08c379a000000000000000000000000000000000000000000000000000000000815260040161184790613372565b60405180910390fd5b615460831115611895576040517f08c379a000000000000000000000000000000000000000000000000000000000815260040161188c90613c5f565b60405180910390fd5b5f816004015490508382600401546118ad91906137a5565b8260040181905550847ff7cdbe7eef47367df0bd8923d1c17781df01ce0a9339bd13b9caa8ee883eac8c8284600401546040516118eb929190613460565b60405180910390a25050505050565b7fa49807205ce4d355092ef5a8a18f56e8913cf4a201fbe287825b095693c2177561192481612232565b61192c612516565b50565b5f60015f8481526020019081526020015f205f015f8373ffffffffffffffffffffffffffffffffffffffff1673ffffffffffffffffffffffffffffffffffffffff1681526020019081526020015f205f9054906101000a900460ff16905092915050565b612a3081565b5f801b81565b6119a8826109ec565b6119b181612232565b6119bb8383612336565b50505050565b5f805f90505b8251811015611c01575f60025f8584815181106119e7576119e6613c7d565b5b602002602001015181526020019081526020015f20604051806101000160405290815f82015f9054906101000a900473ffffffffffffffffffffffffffffffffffffffff1673ffffffffffffffffffffffffffffffffffffffff1673ffffffffffffffffffffffffffffffffffffffff168152602001600182015f9054906101000a900473ffffffffffffffffffffffffffffffffffffffff1673ffffffffffffffffffffffffffffffffffffffff1673ffffffffffffffffffffffffffffffffffffffff16815260200160028201548152602001600382015481526020016004820154815260200160058201548152602001600682015f9054906101000a900460ff166003811115611afd57611afc6129f8565b5b6003811115611b0f57611b0e6129f8565b5b8152602001600782018054611b23906134b4565b80601f0160208091040260200160405190810160405280929190818152602001828054611b4f906134b4565b8015611b9a5780601f10611b7157610100808354040283529160200191611b9a565b820191905f5260205f20905b815481529060010190602001808311611b7d57829003601f168201915b50505050508152505090505f6003811115611bb857611bb76129f8565b5b8160c001516003811115611bcf57611bce6129f8565b5b148015611bdf5750806080015142115b15611bf3578280611bef90613caa565b9350505b5080806001019150506119c7565b50919050565b7fa49807205ce4d355092ef5a8a18f56e8913cf4a201fbe287825b095693c21775611c3181612232565b611c39612577565b5f73ffffffffffffffffffffffffffffffffffffffff168373ffffffffffffffffffffffffffffffffffffffff1603611ca7576040517f08c379a0000000000000000000000000000000000000000000000000000000008152600401611c9e90613d3b565b60405180910390fd5b611cd283838673ffffffffffffffffffffffffffffffffffffffff166121c59092919063ffffffff16565b50505050565b7fa49807205ce4d355092ef5a8a18f56e8913cf4a201fbe287825b095693c21775611d0281612232565b5f73ffffffffffffffffffffffffffffffffffffffff168373ffffffffffffffffffffffffffffffffffffffff1603611d70576040517f08c379a0000000000000000000000000000000000000000000000000000000008152600401611d6790613da3565b60405180910390fd5b8160045f8573ffffffffffffffffffffffffffffffffffffffff1673ffffffffffffffffffffffffffffffffffffffff1681526020019081526020015f205f6101000a81548160ff0219169083151502179055508273ffffffffffffffffffffffffffffffffffffffff167fbbe72b7d9dcb594ee398a4a617885aba53d833e2aad601c813ce9df99fdeb49b83604051611e0a9190612894565b60405180910390a2505050565b611e1f61276a565b60025f8381526020019081526020015f20604051806101000160405290815f82015f9054906101000a900473ffffffffffffffffffffffffffffffffffffffff1673ffffffffffffffffffffffffffffffffffffffff1673ffffffffffffffffffffffffffffffffffffffff168152602001600182015f9054906101000a900473ffffffffffffffffffffffffffffffffffffffff1673ffffffffffffffffffffffffffffffffffffffff1673ffffffffffffffffffffffffffffffffffffffff16815260200160028201548152602001600382015481526020016004820154815260200160058201548152602001600682015f9054906101000a900460ff166003811115611f3157611f306129f8565b5b6003811115611f4357611f426129f8565b5b8152602001600782018054611f57906134b4565b80601f0160208091040260200160405190810160405280929190818152602001828054611f83906134b4565b8015611fce5780601f10611fa557610100808354040283529160200191611fce565b820191905f5260205f20905b815481529060010190602001808311611fb157829003601f168201915b5050505050815250509050919050565b7fa49807205ce4d355092ef5a8a18f56e8913cf4a201fbe287825b095693c2177561200881612232565b5f73ffffffffffffffffffffffffffffffffffffffff168273ffffffffffffffffffffffffffffffffffffffff1603612076576040517f08c379a000000000000000000000000000000000000000000000000000000000815260040161206d90613e0b565b60405180910390fd5b5f60055f9054906101000a900473ffffffffffffffffffffffffffffffffffffffff1690508260055f6101000a81548173ffffffffffffffffffffffffffffffffffffffff021916908373ffffffffffffffffffffffffffffffffffffffff1602179055508273ffffffffffffffffffffffffffffffffffffffff168173ffffffffffffffffffffffffffffffffffffffff167f4ab5be82436d353e61ca18726e984e561f5c1cc7c6d38b29d2553c790434705a60405160405180910390a3505050565b5f7f01ffc9a7000000000000000000000000000000000000000000000000000000007bffffffffffffffffffffffffffffffffffffffffffffffffffffffff1916827bffffffffffffffffffffffffffffffffffffffffffffffffffffffff1916149050919050565b6121ab6125b7565b60026121bd6121b86125f8565b612621565b5f0181905550565b6121d2838383600161262a565b61221357826040517f5274afe700000000000000000000000000000000000000000000000000000000815260040161220a9190612f26565b60405180910390fd5b505050565b600161222a6122256125f8565b612621565b5f0181905550565b6122438161223e61232f565b61268c565b50565b5f612251838361192f565b612325576001805f8581526020019081526020015f205f015f8473ffffffffffffffffffffffffffffffffffffffff1673ffffffffffffffffffffffffffffffffffffffff1681526020019081526020015f205f6101000a81548160ff0219169083151502179055506122c261232f565b73ffffffffffffffffffffffffffffffffffffffff168273ffffffffffffffffffffffffffffffffffffffff16847f2f8788117e7eff1d82e926ec794901d17c78024a50270940304540a733656f0d60405160405180910390a460019050612329565b5f90505b92915050565b5f33905090565b5f612341838361192f565b15612416575f60015f8581526020019081526020015f205f015f8473ffffffffffffffffffffffffffffffffffffffff1673ffffffffffffffffffffffffffffffffffffffff1681526020019081526020015f205f6101000a81548160ff0219169083151502179055506123b361232f565b73ffffffffffffffffffffffffffffffffffffffff168273ffffffffffffffffffffffffffffffffffffffff16847ff6391f5c32d9c69d2a47ea670b442974b53935d1edc7fd64eb21e047a839171b60405160405180910390a46001905061241a565b5f90505b92915050565b612428612577565b5f805f6101000a81548160ff0219169083151502179055507f5db9ee0a495bf2e6ff9c91a7834c1ba4fdd244a5e8aa4e537bd38aeae4b073aa61246961232f565b6040516124769190612f26565b60405180910390a1565b612488611363565b156124bf576040517fd93c066500000000000000000000000000000000000000000000000000000000815260040160405180910390fd5b565b6124cf8484848460016126dd565b61251057836040517f5274afe70000000000000000000000000000000000000000000000000000000081526004016125079190612f26565b60405180910390fd5b50505050565b61251e612480565b60015f806101000a81548160ff0219169083151502179055507f62e78cea01bee320cd4e420270b5ea74000d11b0c9f74754ebdbfc544b05a25861256061232f565b60405161256d9190612f26565b60405180910390a1565b61257f611363565b6125b5576040517f8dfc202b00000000000000000000000000000000000000000000000000000000815260040160405180910390fd5b565b6125bf61274e565b156125f6576040517f3ee5aeb500000000000000000000000000000000000000000000000000000000815260040160405180910390fd5b565b5f7f9b779b17422d0df92223018b32b4d1fa46e071723d6817e2486d003becc55f005f1b905090565b5f819050919050565b5f8063a9059cbb60e01b9050604051815f525f1960601c86166004528460245260205f60445f808b5af1925060015f5114831661267e578383151615612672573d5f823e3d81fd5b5f873b113d1516831692505b806040525050949350505050565b612696828261192f565b6126d95780826040517fe2517d3f0000000000000000000000000000000000000000000000000000000081526004016126d0929190613e29565b60405180910390fd5b5050565b5f806323b872dd60e01b9050604051815f525f1960601c87166004525f1960601c86166024528460445260205f60645f808c5af1925060015f5114831661273b57838315161561272f573d5f823e3d81fd5b5f883b113d1516831692505b806040525f606052505095945050505050565b5f600261276161275c6125f8565b612621565b5f015414905090565b6040518061010001604052805f73ffffffffffffffffffffffffffffffffffffffff1681526020015f73ffffffffffffffffffffffffffffffffffffffff1681526020015f81526020015f81526020015f81526020015f80191681526020015f60038111156127dc576127db6129f8565b5b8152602001606081525090565b5f604051905090565b5f80fd5b5f80fd5b5f7fffffffff0000000000000000000000000000000000000000000000000000000082169050919050565b61282e816127fa565b8114612838575f80fd5b50565b5f8135905061284981612825565b92915050565b5f60208284031215612864576128636127f2565b5b5f6128718482850161283b565b91505092915050565b5f8115159050919050565b61288e8161287a565b82525050565b5f6020820190506128a75f830184612885565b92915050565b5f819050919050565b6128bf816128ad565b82525050565b5f6020820190506128d85f8301846128b6565b92915050565b6128e7816128ad565b81146128f1575f80fd5b50565b5f81359050612902816128de565b92915050565b5f6020828403121561291d5761291c6127f2565b5b5f61292a848285016128f4565b91505092915050565b5f819050919050565b61294581612933565b811461294f575f80fd5b50565b5f813590506129608161293c565b92915050565b5f6020828403121561297b5761297a6127f2565b5b5f61298884828501612952565b91505092915050565b61299a81612933565b82525050565b5f6020820190506129b35f830184612991565b92915050565b5f73ffffffffffffffffffffffffffffffffffffffff82169050919050565b5f6129e2826129b9565b9050919050565b6129f2816129d8565b82525050565b7f4e487b71000000000000000000000000000000000000000000000000000000005f52602160045260245ffd5b60048110612a3657612a356129f8565b5b50565b5f819050612a4682612a25565b919050565b5f612a5582612a39565b9050919050565b612a6581612a4b565b82525050565b5f81519050919050565b5f82825260208201905092915050565b5f5b83811015612aa2578082015181840152602081019050612a87565b5f8484015250505050565b5f601f19601f8301169050919050565b5f612ac782612a6b565b612ad18185612a75565b9350612ae1818560208601612a85565b612aea81612aad565b840191505092915050565b5f61010082019050612b095f83018b6129e9565b612b16602083018a6129e9565b612b236040830189612991565b612b306060830188612991565b612b3d6080830187612991565b612b4a60a08301866128b6565b612b5760c0830185612a5c565b81810360e0830152612b698184612abd565b90509998505050505050505050565b612b81816129d8565b8114612b8b575f80fd5b50565b5f81359050612b9c81612b78565b92915050565b5f8060408385031215612bb857612bb76127f2565b5b5f612bc5858286016128f4565b9250506020612bd685828601612b8e565b9150509250929050565b5f80fd5b5f80fd5b7f4e487b71000000000000000000000000000000000000000000000000000000005f52604160045260245ffd5b612c1e82612aad565b810181811067ffffffffffffffff82111715612c3d57612c3c612be8565b5b80604052505050565b5f612c4f6127e9565b9050612c5b8282612c15565b919050565b5f67ffffffffffffffff821115612c7a57612c79612be8565b5b612c8382612aad565b9050602081019050919050565b828183375f83830152505050565b5f612cb0612cab84612c60565b612c46565b905082815260208101848484011115612ccc57612ccb612be4565b5b612cd7848285612c90565b509392505050565b5f82601f830112612cf357612cf2612be0565b5b8135612d03848260208601612c9e565b91505092915050565b5f805f8060808587031215612d2457612d236127f2565b5b5f612d3187828801612b8e565b9450506020612d4287828801612952565b9350506040612d53878288016128f4565b925050606085013567ffffffffffffffff811115612d7457612d736127f6565b5b612d8087828801612cdf565b91505092959194509250565b5f8060408385031215612da257612da16127f2565b5b5f612daf858286016128f4565b9250506020612dc0858286016128f4565b9150509250929050565b5f60208284031215612ddf57612dde6127f2565b5b5f612dec84828501612b8e565b91505092915050565b5f81519050919050565b5f82825260208201905092915050565b5f819050602082019050919050565b612e27816128ad565b82525050565b5f612e388383612e1e565b60208301905092915050565b5f602082019050919050565b5f612e5a82612df5565b612e648185612dff565b9350612e6f83612e0f565b805f5b83811015612e9f578151612e868882612e2d565b9750612e9183612e44565b925050600181019050612e72565b5085935050505092915050565b5f6020820190508181035f830152612ec48184612e50565b905092915050565b5f8060408385031215612ee257612ee16127f2565b5b5f612eef858286016128f4565b925050602083013567ffffffffffffffff811115612f1057612f0f6127f6565b5b612f1c85828601612cdf565b9150509250929050565b5f602082019050612f395f8301846129e9565b92915050565b5f8060408385031215612f5557612f546127f2565b5b5f612f6285828601612b8e565b9250506020612f7385828601612952565b9150509250929050565b5f8060408385031215612f9357612f926127f2565b5b5f612fa0858286016128f4565b9250506020612fb185828601612952565b9150509250929050565b5f67ffffffffffffffff821115612fd557612fd4612be8565b5b602082029050602081019050919050565b5f80fd5b5f612ffc612ff784612fbb565b612c46565b9050808382526020820190506020840283018581111561301f5761301e612fe6565b5b835b81811015613048578061303488826128f4565b845260208401935050602081019050613021565b5050509392505050565b5f82601f83011261306657613065612be0565b5b8135613076848260208601612fea565b91505092915050565b5f60208284031215613094576130936127f2565b5b5f82013567ffffffffffffffff8111156130b1576130b06127f6565b5b6130bd84828501613052565b91505092915050565b5f805f606084860312156130dd576130dc6127f2565b5b5f6130ea86828701612b8e565b93505060206130fb86828701612b8e565b925050604061310c86828701612952565b9150509250925092565b61311f8161287a565b8114613129575f80fd5b50565b5f8135905061313a81613116565b92915050565b5f8060408385031215613156576131556127f2565b5b5f61316385828601612b8e565b92505060206131748582860161312c565b9150509250929050565b613187816129d8565b82525050565b61319681612933565b82525050565b6131a581612a4b565b82525050565b5f82825260208201905092915050565b5f6131c582612a6b565b6131cf81856131ab565b93506131df818560208601612a85565b6131e881612aad565b840191505092915050565b5f61010083015f8301516132095f86018261317e565b50602083015161321c602086018261317e565b50604083015161322f604086018261318d565b506060830151613242606086018261318d565b506080830151613255608086018261318d565b5060a083015161326860a0860182612e1e565b5060c083015161327b60c086018261319c565b5060e083015184820360e086015261329382826131bb565b9150508091505092915050565b5f6020820190508181035f8301526132b881846131f3565b905092915050565b7f457363726f7720646f6573206e6f7420657869737400000000000000000000005f82015250565b5f6132f4601583612a75565b91506132ff826132c0565b602082019050919050565b5f6020820190508181035f830152613321816132e8565b9050919050565b7f457363726f77206e6f74206163746976650000000000000000000000000000005f82015250565b5f61335c601183612a75565b915061336782613328565b602082019050919050565b5f6020820190508181035f83015261338981613350565b9050919050565b7f457363726f77206e6f74206578706972656420796574000000000000000000005f82015250565b5f6133c4601683612a75565b91506133cf82613390565b602082019050919050565b5f6020820190508181035f8301526133f1816133b8565b9050919050565b7f46656520746f6f206869676800000000000000000000000000000000000000005f82015250565b5f61342c600c83612a75565b9150613437826133f8565b602082019050919050565b5f6020820190508181035f83015261345981613420565b9050919050565b5f6040820190506134735f830185612991565b6134806020830184612991565b9392505050565b7f4e487b71000000000000000000000000000000000000000000000000000000005f52602260045260245ffd5b5f60028204905060018216806134cb57607f821691505b6020821081036134de576134dd613487565b5b50919050565b7f546f6b656e206e6f7420737570706f72746564000000000000000000000000005f82015250565b5f613518601383612a75565b9150613523826134e4565b602082019050919050565b5f6020820190508181035f8301526135458161350c565b9050919050565b7f416d6f756e74206d7573742062652067726561746572207468616e20300000005f82015250565b5f613580601d83612a75565b915061358b8261354c565b602082019050919050565b5f6020820190508181035f8301526135ad81613574565b9050919050565b7f496e76616c6964207061796d656e7420494400000000000000000000000000005f82015250565b5f6135e8601283612a75565b91506135f3826135b4565b602082019050919050565b5f6020820190508181035f830152613615816135dc565b9050919050565b5f8160601b9050919050565b5f6136328261361c565b9050919050565b5f61364382613628565b9050919050565b61365b613656826129d8565b613639565b82525050565b5f819050919050565b61367b61367682612933565b613661565b82525050565b5f819050919050565b61369b613696826128ad565b613681565b82525050565b5f6136ac828961364a565b6014820191506136bc828861364a565b6014820191506136cc828761366a565b6020820191506136dc828661368a565b6020820191506136ec828561366a565b6020820191506136fc828461366a565b602082019150819050979650505050505050565b7f457363726f7720616c72656164792065786973747300000000000000000000005f82015250565b5f613744601583612a75565b915061374f82613710565b602082019050919050565b5f6020820190508181035f83015261377181613738565b9050919050565b7f4e487b71000000000000000000000000000000000000000000000000000000005f52601160045260245ffd5b5f6137af82612933565b91506137ba83612933565b92508282019050808211156137d2576137d1613778565b5b92915050565b5f819050815f5260205f209050919050565b5f6020601f8301049050919050565b5f82821b905092915050565b5f600883026138347fffffffffffffffffffffffffffffffffffffffffffffffffffffffffffffffff826137f9565b61383e86836137f9565b95508019841693508086168417925050509392505050565b5f819050919050565b5f61387961387461386f84612933565b613856565b612933565b9050919050565b5f819050919050565b6138928361385f565b6138a661389e82613880565b848454613805565b825550505050565b5f90565b6138ba6138ae565b6138c5818484613889565b505050565b5b818110156138e8576138dd5f826138b2565b6001810190506138cb565b5050565b601f82111561392d576138fe816137d8565b613907846137ea565b81016020851015613916578190505b61392a613922856137ea565b8301826138ca565b50505b505050565b5f82821c905092915050565b5f61394d5f1984600802613932565b1980831691505092915050565b5f613965838361393e565b9150826002028217905092915050565b61397e82612a6b565b67ffffffffffffffff81111561399757613996612be8565b5b6139a182546134b4565b6139ac8282856138ec565b5f60209050601f8311600181146139dd575f84156139cb578287015190505b6139d5858261395a565b865550613a3c565b601f1984166139eb866137d8565b5f5b82811015613a12578489015182556001820191506020850194506020810190506139ed565b86831015613a2f5784890151613a2b601f89168261393e565b8355505b6001600288020188555050505b505050505050565b5f608082019050613a575f8301876129e9565b613a646020830186612991565b613a7160408301856128b6565b613a7e6060830184612991565b95945050505050565b7f457363726f7720657870697265640000000000000000000000000000000000005f82015250565b5f613abb600e83612a75565b9150613ac682613a87565b602082019050919050565b5f6020820190508181035f830152613ae881613aaf565b9050919050565b5f613af982612933565b9150613b0483612933565b9250828202613b1281612933565b91508282048414831517613b2957613b28613778565b5b5092915050565b7f4e487b71000000000000000000000000000000000000000000000000000000005f52601260045260245ffd5b5f613b6782612933565b9150613b7283612933565b925082613b8257613b81613b30565b5b828204905092915050565b5f613b9782612933565b9150613ba283612933565b9250828203905081811115613bba57613bb9613778565b5b92915050565b5f604082019050613bd35f8301856128b6565b613be06020830184612991565b9392505050565b5f604082019050613bfa5f830185612991565b8181036020830152613c0c8184612abd565b90509392505050565b7f457874656e73696f6e20746f6f206c6f6e6700000000000000000000000000005f82015250565b5f613c49601283612a75565b9150613c5482613c15565b602082019050919050565b5f6020820190508181035f830152613c7681613c3d565b9050919050565b7f4e487b71000000000000000000000000000000000000000000000000000000005f52603260045260245ffd5b5f613cb482612933565b91507fffffffffffffffffffffffffffffffffffffffffffffffffffffffffffffffff8203613ce657613ce5613778565b5b600182019050919050565b7f496e76616c696420726563697069656e740000000000000000000000000000005f82015250565b5f613d25601183612a75565b9150613d3082613cf1565b602082019050919050565b5f6020820190508181035f830152613d5281613d19565b9050919050565b7f496e76616c696420746f6b656e000000000000000000000000000000000000005f82015250565b5f613d8d600d83612a75565b9150613d9882613d59565b602082019050919050565b5f6020820190508181035f830152613dba81613d81565b9050919050565b7f496e76616c6964207472656173757279000000000000000000000000000000005f82015250565b5f613df5601083612a75565b9150613e0082613dc1565b602082019050919050565b5f6020820190508181035f830152613e2281613de9565b9050919050565b5f604082019050613e3c5f8301856129e9565b613e4960208301846128b6565b939250505056fea2646970667358221220bcbba7c5ca89188bc4cff54979a14f3388f6b07a97575f67d5de0c201980841864736f6c63430008180033","linkReferences":{}},"methodIdentifiers":{"ADMIN_ROLE()":"75b238fc","DEFAULT_ADMIN_ROLE()":"a217fddf","DEFAULT_TIMEOUT()":"9add92e4","MAX_TIMEOUT_EXTENSION()":"413f7299","ORACLE_ROLE()":"07e2cea5","createEscrow(address,uint256,bytes32,string)":"4242835c","emergencyWithdraw(address,address,uint256)":"e63ea408","escrows(bytes32)":"2d83549c","expireEscrow(bytes32)":"0f01b937","extendTimeout(bytes32,uint256)":"80702d9c","getEscrow(bytes32)":"f023b811","getExpiredEscrowsCount(bytes32[])":"dfe389cb","getRoleAdmin(bytes32)":"248a9ca3","getUserEscrows(address)":"5ccea85e","grantRole(bytes32,address)":"2f2ff15d","hasRole(bytes32,address)":"91d14854","pause()":"8456cb59","paused()":"5c975abb","platformFeeBps()":"22dcd13e","refundEscrow(bytes32,string)":"5e5428c4","releaseEscrow(bytes32,bytes32)":"5b7d6b7e","renounceRole(bytes32,address)":"36568abe","revokeRole(bytes32,address)":"d547741f","setPlatformFee(uint256)":"12e8e2c3","setSupportedToken(address,bool)":"e7986466","setTreasury(address)":"f0f44260","supportedTokens(address)":"68c4ac26","supportsInterface(bytes4)":"01ffc9a7","treasury()":"61d027b3","unpause()":"3f4ba83a","userEscrows(address,uint256)":"7f944dd0"},"id":34}